{
  "_format": "hh-sol-artifact-1",
  "contractName": "TheMarketplaceRegistry",
  "sourceName": "contracts/TheMarketplaceRegistry.sol",
  "abi": [
    {
      "inputs": [],
      "stateMutability": "nonpayable",
      "type": "constructor"
    },
    {
      "anonymous": false,
      "inputs": [
        {
          "indexed": true,
          "internalType": "address",
          "name": "previousOwner",
          "type": "address"
        },
        {
          "indexed": true,
          "internalType": "address",
          "name": "newOwner",
          "type": "address"
        }
      ],
      "name": "OwnershipTransferred",
      "type": "event"
    },
    {
      "inputs": [],
      "name": "DELAY_PERIOD",
      "outputs": [
        {
          "internalType": "uint256",
          "name": "",
          "type": "uint256"
        }
      ],
      "stateMutability": "view",
      "type": "function"
    },
    {
      "inputs": [
        {
          "internalType": "address",
          "name": "",
          "type": "address"
        }
      ],
      "name": "contracts",
      "outputs": [
        {
          "internalType": "bool",
          "name": "",
          "type": "bool"
        }
      ],
      "stateMutability": "view",
      "type": "function"
    },
    {
      "inputs": [],
      "name": "delegateProxyImplementation",
      "outputs": [
        {
          "internalType": "address",
          "name": "",
          "type": "address"
        }
      ],
      "stateMutability": "view",
      "type": "function"
    },
    {
      "inputs": [
        {
          "internalType": "address",
          "name": "addr",
          "type": "address"
        }
      ],
      "name": "endGrantAuthentication",
      "outputs": [],
      "stateMutability": "nonpayable",
      "type": "function"
    },
    {
      "inputs": [
        {
          "internalType": "address",
          "name": "authAddress",
          "type": "address"
        }
      ],
      "name": "grantInitialAuthentication",
      "outputs": [],
      "stateMutability": "nonpayable",
      "type": "function"
    },
    {
      "inputs": [],
      "name": "initialAddressSet",
      "outputs": [
        {
          "internalType": "bool",
          "name": "",
          "type": "bool"
        }
      ],
      "stateMutability": "view",
      "type": "function"
    },
    {
      "inputs": [],
      "name": "owner",
      "outputs": [
        {
          "internalType": "address",
          "name": "",
          "type": "address"
        }
      ],
      "stateMutability": "view",
      "type": "function"
    },
    {
      "inputs": [
        {
          "internalType": "address",
          "name": "",
          "type": "address"
        }
      ],
      "name": "pending",
      "outputs": [
        {
          "internalType": "uint256",
          "name": "",
          "type": "uint256"
        }
      ],
      "stateMutability": "view",
      "type": "function"
    },
    {
      "inputs": [
        {
          "internalType": "address",
          "name": "",
          "type": "address"
        }
      ],
      "name": "proxies",
      "outputs": [
        {
          "internalType": "contract OwnableDelegateProxy",
          "name": "",
          "type": "address"
        }
      ],
      "stateMutability": "view",
      "type": "function"
    },
    {
      "inputs": [],
      "name": "registerProxy",
      "outputs": [
        {
          "internalType": "contract OwnableDelegateProxy",
          "name": "proxy",
          "type": "address"
        }
      ],
      "stateMutability": "nonpayable",
      "type": "function"
    },
    {
      "inputs": [
        {
          "internalType": "address",
          "name": "user",
          "type": "address"
        }
      ],
      "name": "registerProxyFor",
      "outputs": [
        {
          "internalType": "contract OwnableDelegateProxy",
          "name": "proxy",
          "type": "address"
        }
      ],
      "stateMutability": "nonpayable",
      "type": "function"
    },
    {
      "inputs": [],
      "name": "registerProxyOverride",
      "outputs": [
        {
          "internalType": "contract OwnableDelegateProxy",
          "name": "proxy",
          "type": "address"
        }
      ],
      "stateMutability": "nonpayable",
      "type": "function"
    },
    {
      "inputs": [],
      "name": "renounceOwnership",
      "outputs": [],
      "stateMutability": "nonpayable",
      "type": "function"
    },
    {
      "inputs": [
        {
          "internalType": "address",
          "name": "addr",
          "type": "address"
        }
      ],
      "name": "revokeAuthentication",
      "outputs": [],
      "stateMutability": "nonpayable",
      "type": "function"
    },
    {
      "inputs": [
        {
          "internalType": "address",
          "name": "addr",
          "type": "address"
        }
      ],
      "name": "startGrantAuthentication",
      "outputs": [],
      "stateMutability": "nonpayable",
      "type": "function"
    },
    {
      "inputs": [
        {
          "internalType": "address",
          "name": "from",
          "type": "address"
        },
        {
          "internalType": "address",
          "name": "to",
          "type": "address"
        }
      ],
      "name": "transferAccessTo",
      "outputs": [],
      "stateMutability": "nonpayable",
      "type": "function"
    },
    {
      "inputs": [
        {
          "internalType": "address",
          "name": "newOwner",
          "type": "address"
        }
      ],
      "name": "transferOwnership",
      "outputs": [],
      "stateMutability": "nonpayable",
      "type": "function"
    }
  ],
  "bytecode": "0x6080604052621275006005556006805460ff1916905534801561002157600080fd5b50600061002c610192565b600080546001600160a01b0319166001600160a01b0383169081178255604051929350917f8be0079c531659141344cd1fd0a4f28419497f9722a3daafe3b4186f6b6457e0908290a350600060405161008490610196565b604051809103906000f0801580156100a0573d6000803e3d6000fd5b506040805163485cc95560e01b81523060048201819052602482015290519192506001600160a01b0383169163485cc9559160448082019260009290919082900301818387803b1580156100f357600080fd5b505af1158015610107573d6000803e3d6000fd5b505060408051634c93505f60e01b81526001600482015290516001600160a01b0385169350634c93505f9250602480830192600092919082900301818387803b15801561015357600080fd5b505af1158015610167573d6000803e3d6000fd5b5050600180546001600160a01b0319166001600160a01b039490941693909317909255506101a39050565b3390565b610b0c806119cd83390190565b61181b806101b26000396000f3fe60806040523480156200001157600080fd5b5060043610620001235760003560e01c80638da5cb5b11620000b1578063dcfa9222116200007b578063dcfa922214620002bd578063ddd81f8214620002ee578063e71a02e114620002f8578063ef7f38341462000302578063f2fde38b146200032b5762000123565b80638da5cb5b146200025757806397204d8e1462000261578063c4552791146200026b578063d4e8e06314620002945762000123565b80635eebea2011620000f35780635eebea2014620001df578063631d9e3f146200021a57806369dc9ff31462000224578063715018a6146200024d5762000123565b806268674114620001285780631a86ac4f146200016d57806338b6e407146200018b57806353376d1f14620001b6575b600080fd5b62000151600480360360208110156200014057600080fd5b50356001600160a01b031662000354565b604080516001600160a01b039092168252519081900360200190f35b6200017762000504565b604080519115158252519081900360200190f35b620001b460048036036020811015620001a357600080fd5b50356001600160a01b03166200050d565b005b620001b460048036036020811015620001ce57600080fd5b50356001600160a01b031662000641565b6200020860048036036020811015620001f757600080fd5b50356001600160a01b0316620006be565b60408051918252519081900360200190f35b62000151620006d0565b62000177600480360360208110156200023c57600080fd5b50356001600160a01b031662000809565b620001b46200081e565b62000151620008c4565b62000151620008d3565b62000151600480360360208110156200028357600080fd5b50356001600160a01b0316620008e2565b620001b460048036036020811015620002ac57600080fd5b50356001600160a01b0316620008fd565b620001b460048036036040811015620002d557600080fd5b506001600160a01b0381358116916020013516620009f2565b6200015162000ae5565b6200020862000af7565b620001b4600480360360208110156200031a57600080fd5b50356001600160a01b031662000afd565b620001b4600480360360208110156200034357600080fd5b50356001600160a01b031662000bd5565b6001600160a01b0381811660009081526002602052604081205490911615620003c4576040805162461bcd60e51b815260206004820152601860248201527f5573657220616c72656164792068617320612070726f78790000000000000000604482015290519081900360640190fd5b600154604080516001600160a01b0380861660248301523060448084019190915283518084039091018152606490920183526020820180516001600160e01b031663485cc95560e01b179052915185939290921691620004249062000cd7565b80846001600160a01b03168152602001836001600160a01b0316815260200180602001828103825283818151815260200191508051906020019080838360005b838110156200047e57818101518382015260200162000464565b50505050905090810190601f168015620004ac5780820380516001836020036101000a031916815260200191505b50945050505050604051809103906000f080158015620004d0573d6000803e3d6000fd5b506001600160a01b03928316600090815260026020526040902080546001600160a01b031916938216939093179092555090565b60065460ff1681565b6200051762000cd3565b6000546001600160a01b0390811691161462000569576040805162461bcd60e51b8152602060048201819052602482015260008051602062001763833981519152604482015290519081900360640190fd5b6001600160a01b03811660009081526004602052604090205460ff16158015620005aa57506001600160a01b03811660009081526003602052604090205415155b8015620005d357506005546001600160a01b038216600090815260036020526040902054429101105b620006105760405162461bcd60e51b81526004018080602001828103825260468152602001806200171d6046913960600191505060405180910390fd5b6001600160a01b0316600090815260036020908152604080832083905560049091529020805460ff19166001179055565b6200064b62000cd3565b6000546001600160a01b039081169116146200069d576040805162461bcd60e51b8152602060048201819052602482015260008051602062001763833981519152604482015290519081900360640190fd5b6001600160a01b03166000908152600460205260409020805460ff19169055565b60036020526000908152604090205481565b6001546040805133602482018190523060448084019190915283518084039091018152606490920183526020820180516001600160e01b031663485cc95560e01b17905291516000936001600160a01b031691906200072f9062000cd7565b80846001600160a01b03168152602001836001600160a01b0316815260200180602001828103825283818151815260200191508051906020019080838360005b83811015620007895781810151838201526020016200076f565b50505050905090810190601f168015620007b75780820380516001836020036101000a031916815260200191505b50945050505050604051809103906000f080158015620007db573d6000803e3d6000fd5b5033600090815260026020526040902080546001600160a01b0319166001600160a01b038316179055919050565b60046020526000908152604090205460ff1681565b6200082862000cd3565b6000546001600160a01b039081169116146200087a576040805162461bcd60e51b8152602060048201819052602482015260008051602062001763833981519152604482015290519081900360640190fd5b600080546040516001600160a01b03909116907f8be0079c531659141344cd1fd0a4f28419497f9722a3daafe3b4186f6b6457e0908390a3600080546001600160a01b0319169055565b6000546001600160a01b031690565b6001546001600160a01b031681565b6002602052600090815260409020546001600160a01b031681565b6200090762000cd3565b6000546001600160a01b0390811691161462000959576040805162461bcd60e51b8152602060048201819052602482015260008051602062001763833981519152604482015290519081900360640190fd5b6001600160a01b03811660009081526004602052604090205460ff161580156200099957506001600160a01b038116600090815260036020526040902054155b620009d65760405162461bcd60e51b8152600401808060200182810382526033815260200180620017b36033913960400191505060405180910390fd5b6001600160a01b03166000908152600360205260409020429055565b6001600160a01b038083166000908152600260205260409020541633811462000a4d5760405162461bcd60e51b815260040180806020018281038252602e815260200180620016c9602e913960400191505060405180910390fd5b6001600160a01b03828116600090815260026020526040902054161562000aa65760405162461bcd60e51b8152600401808060200182810382526030815260200180620017836030913960400191505060405180910390fd5b6001600160a01b0392831660009081526002602052604080822080546001600160a01b0319908116909155938516825290208054919093169116179055565b600062000af23362000354565b905090565b60055481565b62000b0762000cd3565b6000546001600160a01b0390811691161462000b59576040805162461bcd60e51b8152602060048201819052602482015260008051602062001763833981519152604482015290519081900360640190fd5b60065460ff161562000ba0576040805162461bcd60e51b815260206004820152600b60248201526a185b1c9958591e481cd95d60aa1b604482015290519081900360640190fd5b6006805460ff1990811660019081179092556001600160a01b0390921660009081526004602052604090208054909216179055565b62000bdf62000cd3565b6000546001600160a01b0390811691161462000c31576040805162461bcd60e51b8152602060048201819052602482015260008051602062001763833981519152604482015290519081900360640190fd5b6001600160a01b03811662000c785760405162461bcd60e51b8152600401808060200182810382526026815260200180620016f76026913960400191505060405180910390fd5b600080546040516001600160a01b03808516939216917f8be0079c531659141344cd1fd0a4f28419497f9722a3daafe3b4186f6b6457e091a3600080546001600160a01b0319166001600160a01b0392909216919091179055565b3390565b6109e38062000ce68339019056fe608060405234801561001057600080fd5b506040516109e33803806109e38339818101604052606081101561003357600080fd5b8151602083015160408085018051915193959294830192918464010000000082111561005e57600080fd5b90830190602082018581111561007357600080fd5b825164010000000081118282018810171561008d57600080fd5b82525081516020918201929091019080838360005b838110156100ba5781810151838201526020016100a2565b50505050905090810190601f1680156100e75780820380516001836020036101000a031916815260200191505b506040525050506100fd836101f060201b60201c565b61010682610212565b6000826001600160a01b0316826040518082805190602001908083835b602083106101425780518252601f199092019160209182019101610123565b6001836020036101000a038019825116818451168082178552505050505050905001915050600060405180830381855af49150503d80600081146101a2576040519150601f19603f3d011682016040523d82523d6000602084013e6101a7565b606091505b50509050806101e75760405162461bcd60e51b815260040180806020018281038252602a8152602001806109b9602a913960400191505060405180910390fd5b505050506102a7565b600180546001600160a01b0319166001600160a01b0392909216919091179055565b6000546001600160a01b038281169116141561025f5760405162461bcd60e51b81526004018080602001828103825260268152602001806109936026913960400191505060405180910390fd5b600080546001600160a01b0319166001600160a01b038316908117825560405190917fbc7cd75a20ee27fd9adebab32041f755214dbc6bffa90cc0225b39da2e5c2d3b91a250565b6106dd806102b66000396000f3fe6080604052600436106100705760003560e01c80634f1ef2861161004e5780634f1ef286146101895780635c60da1b1461023f5780636fde820214610254578063f1739cae1461026957610070565b8063025313a2146100fc5780633659cfe61461012d5780634555d5c914610162575b600061007a61029c565b90506001600160a01b0381166100d7576040805162461bcd60e51b815260206004820152601d60248201527f50726f787920696d706c656d656e746174696f6e207265717569726564000000604482015290519081900360640190fd5b60405136600082376000803683855af43d806000843e8180156100f8578184f35b8184fd5b34801561010857600080fd5b506101116102ab565b604080516001600160a01b039092168252519081900360200190f35b34801561013957600080fd5b506101606004803603602081101561015057600080fd5b50356001600160a01b03166102ba565b005b34801561016e57600080fd5b5061017761031d565b60408051918252519081900360200190f35b6101606004803603604081101561019f57600080fd5b6001600160a01b0382351691908101906040810160208201356401000000008111156101ca57600080fd5b8201836020820111156101dc57600080fd5b803590602001918460018302840111640100000000831117156101fe57600080fd5b91908080601f016020809104026020016040519081016040528093929190818152602001838380828437600092019190915250929550610322945050505050565b34801561024b57600080fd5b5061011161029c565b34801561026057600080fd5b5061011161047e565b34801561027557600080fd5b506101606004803603602081101561028c57600080fd5b50356001600160a01b031661048d565b6000546001600160a01b031690565b60006102b561047e565b905090565b6102c26102ab565b6001600160a01b0316336001600160a01b0316146103115760405162461bcd60e51b815260040180806020018281038252602981526020018061067f6029913960400191505060405180910390fd5b61031a8161057d565b50565b600290565b61032a6102ab565b6001600160a01b0316336001600160a01b0316146103795760405162461bcd60e51b815260040180806020018281038252602981526020018061067f6029913960400191505060405180910390fd5b610382826102ba565b6000306001600160a01b0316826040518082805190602001908083835b602083106103be5780518252601f19909201916020918201910161039f565b6001836020036101000a038019825116818451168082178552505050505050905001915050600060405180830381855af49150503d806000811461041e576040519150601f19603f3d011682016040523d82523d6000602084013e610423565b606091505b5050905080610479576040805162461bcd60e51b815260206004820152601f60248201527f43616c6c206661696c65642061667465722070726f7879207570677261646500604482015290519081900360640190fd5b505050565b6001546001600160a01b031690565b6104956102ab565b6001600160a01b0316336001600160a01b0316146104e45760405162461bcd60e51b815260040180806020018281038252602981526020018061067f6029913960400191505060405180910390fd5b6001600160a01b0381166105295760405162461bcd60e51b815260040180806020018281038252602481526020018061065b6024913960400191505060405180910390fd5b7f5a3e66efaa1e445ebd894728a69d6959842ea1e97bd79b892797106e270efcd96105526102ab565b604080516001600160a01b03928316815291841660208301528051918290030190a161031a81610612565b6000546001600160a01b03828116911614156105ca5760405162461bcd60e51b81526004018080602001828103825260268152602001806106356026913960400191505060405180910390fd5b600080546001600160a01b0319166001600160a01b038316908117825560405190917fbc7cd75a20ee27fd9adebab32041f755214dbc6bffa90cc0225b39da2e5c2d3b91a250565b600180546001600160a01b0319166001600160a01b039290921691909117905556fe50726f787920616c72656164792075736573207468697320696d706c656d656e746174696f6e4e6577206f776e65722063616e6e6f7420626520746865206e756c6c20616464726573734f6e6c79207468652070726f7879206f776e65722063616e2063616c6c2074686973206d6574686f64a26469706673582212202b99185600b485bcecc0e007b7ed1d63090455d8dfe2ead903bccded91b0b83664736f6c6343000705003350726f787920616c72656164792075736573207468697320696d706c656d656e746174696f6e4f776e61626c6544656c656761746550726f7879206661696c656420696d706c656d656e746174696f6e50726f7879207472616e736665722063616e206f6e6c792062652063616c6c6564206279207468652070726f78794f776e61626c653a206e6577206f776e657220697320746865207a65726f2061646472657373436f6e7472616374206973206e6f206c6f6e6765722070656e64696e67206f722068617320616c7265616479206265656e20617070726f7665642062792072656769737472794f776e61626c653a2063616c6c6572206973206e6f7420746865206f776e657250726f7879207472616e7366657220686173206578697374696e672070726f78792061732064657374696e6174696f6e436f6e747261637420697320616c726561647920616c6c6f77656420696e2072656769737472792c206f722070656e64696e67a2646970667358221220c3d6961c1d6fb7226761c23b3663138771691fe9cf8cd9a625413f231ff7107764736f6c6343000705003360806040526001805460ff60a01b1916905534801561001d57600080fd5b50610adf8061002d6000396000f3fe6080604052600436106100865760003560e01c80634f8632ba116100595780634f8632ba146102d157806363d256ce146103025780636fde8202146103175780637b1039991461032c5780638f4ffcb11461034157610086565b80631b0f7ba9146100be5780633f801f911461019d578063485cc9551461026a5780634c93505f146102a5575b60408051348152905133917fa419615bc8fda4c87663805ee2a3597a6d71c1d476911d9892f340d965bc7bf1919081900360200190a2005b3480156100ca57600080fd5b50610189600480360360608110156100e157600080fd5b6001600160a01b038235169160ff6020820135169181019060608101604082013564010000000081111561011457600080fd5b82018360208201111561012657600080fd5b8035906020019184600183028401116401000000008311171561014857600080fd5b91908080601f016020809104026020016040519081016040528093929190818152602001838380828437600092019190915250929550610413945050505050565b604080519115158252519081900360200190f35b3480156101a957600080fd5b50610268600480360360608110156101c057600080fd5b6001600160a01b038235169160ff602082013516918101906060810160408201356401000000008111156101f357600080fd5b82018360208201111561020557600080fd5b8035906020019184600183028401116401000000008311171561022757600080fd5b91908080601f016020809104026020016040519081016040528093929190818152602001838380828437600092019190915250929550610676945050505050565b005b34801561027657600080fd5b506102686004803603604081101561028d57600080fd5b506001600160a01b03813581169160200135166106d0565b3480156102b157600080fd5b50610268600480360360208110156102c857600080fd5b5035151561075a565b3480156102dd57600080fd5b506102e66107f6565b604080516001600160a01b039092168252519081900360200190f35b34801561030e57600080fd5b50610189610805565b34801561032357600080fd5b506102e6610815565b34801561033857600080fd5b506102e6610824565b34801561034d57600080fd5b506102686004803603608081101561036457600080fd5b6001600160a01b03823581169260208101359260408201359092169181019060808101606082013564010000000081111561039e57600080fd5b8201836020820111156103b057600080fd5b803590602001918460018302840111640100000000831117156103d257600080fd5b91908080601f016020809104026020016040519081016040528093929190818152602001838380828437600092019190915250929550610833945050505050565b6002546000906001600160a01b03163314806104b75750600354600160a01b900460ff161580156104b75750600354604080516369dc9ff360e01b815233600482015290516001600160a01b03909216916369dc9ff391602480820192602092909190829003018186803b15801561048a57600080fd5b505afa15801561049e573d6000803e3d6000fd5b505050506040513d60208110156104b457600080fd5b50515b6104f25760405162461bcd60e51b815260040180806020018281038252608a8152602001806109ed608a913960a00191505060405180910390fd5b6060600084600181111561050257fe5b14156105b457846001600160a01b0316836040518082805190602001908083835b602083106105425780518252601f199092019160209182019101610523565b6001836020036101000a0380198251168184511680821785525050505050509050019150506000604051808303816000865af19150503d80600081146105a4576040519150601f19603f3d011682016040523d82523d6000602084013e6105a9565b606091505b50909250905061066e565b60018460018111156105c257fe5b141561066e57846001600160a01b0316836040518082805190602001908083835b602083106106025780518252601f1990920191602091820191016105e3565b6001836020036101000a038019825116818451168082178552505050505050905001915050600060405180830381855af49150503d8060008114610662576040519150601f19603f3d011682016040523d82523d6000602084013e610667565b606091505b5090925090505b509392505050565b610681838383610413565b6106cb576040805162461bcd60e51b8152602060048201526016602482015275141c9bde1e48185cdcd95c9d1a5bdb8819985a5b195960521b604482015290519081900360640190fd5b505050565b600154600160a01b900460ff16156107195760405162461bcd60e51b81526004018080602001828103825260278152602001806109c66027913960400191505060405180910390fd5b6001805460ff60a01b1916600160a01b179055600280546001600160a01b039384166001600160a01b03199182161790915560038054929093169116179055565b6002546001600160a01b031633146107a35760405162461bcd60e51b8152600401808060200182810382526033815260200180610a776033913960400191505060405180910390fd5b60038054821515600160a01b810260ff60a01b199092169190911790915560408051918252517f2165014523a6f4135deffed62d70149aad59b64de5aac51e3abbcbe2a83e2f7e9181900360200190a150565b6002546001600160a01b031681565b600354600160a01b900460ff1681565b6001546001600160a01b031690565b6003546001600160a01b031681565b604080516323b872dd60e01b81526001600160a01b03868116600483015230602483015260448201869052915184928316916323b872dd9160648083019260209291908290030181600087803b15801561088c57600080fd5b505af11580156108a0573d6000803e3d6000fd5b505050506040513d60208110156108b657600080fd5b5051610909576040805162461bcd60e51b815260206004820152601b60248201527f455243323020746f6b656e207472616e73666572206661696c65640000000000604482015290519081900360640190fd5b826001600160a01b0316856001600160a01b03167fd65b48fd35864b3528d38e44760be5553248f89bf3ff6b06cca57817cc2650bf86856040518083815260200180602001828103825283818151815260200191508051906020019080838360005b8381101561098357818101518382015260200161096b565b50505050905090810190601f1680156109b05780820380516001836020036101000a031916815260200191505b50935050505060405180910390a3505050505056fe41757468656e746963617465642070726f787920616c726561647920696e697469616c697a656441757468656e746963617465642070726f78792063616e206f6e6c792062652063616c6c65642062792069747320757365722c206f72206279206120636f6e747261637420617574686f72697a656420627920746865207265676973747279206173206c6f6e6720617320746865207573657220686173206e6f74207265766f6b65642061636365737341757468656e746963617465642070726f78792063616e206f6e6c79206265207265766f6b6564206279206974732075736572a26469706673582212208d2f57006407bfb00a2faa085197301d2ee741b80e39e933edb193b480eb1fb164736f6c63430007050033",
  "linkReferences": {},
  "deployedLinkReferences": {}
}