{
  "_format": "hh-sol-artifact-1",
  "contractName": "TheNFT",
  "sourceName": "contracts/TheNFT.sol",
  "abi": [
    {
      "inputs": [],
      "stateMutability": "nonpayable",
      "type": "constructor"
    },
    {
      "inputs": [],
      "name": "ApprovalCallerNotOwnerNorApproved",
      "type": "error"
    },
    {
      "inputs": [],
      "name": "ApprovalQueryForNonexistentToken",
      "type": "error"
    },
    {
      "inputs": [],
      "name": "ApprovalToCurrentOwner",
      "type": "error"
    },
    {
      "inputs": [],
      "name": "ApproveToCaller",
      "type": "error"
    },
    {
      "inputs": [],
      "name": "BalanceQueryForZeroAddress",
      "type": "error"
    },
    {
      "inputs": [],
      "name": "MintToZeroAddress",
      "type": "error"
    },
    {
      "inputs": [],
      "name": "MintZeroQuantity",
      "type": "error"
    },
    {
      "inputs": [],
      "name": "OwnerQueryForNonexistentToken",
      "type": "error"
    },
    {
      "inputs": [],
      "name": "TransferCallerNotOwnerNorApproved",
      "type": "error"
    },
    {
      "inputs": [],
      "name": "TransferFromIncorrectOwner",
      "type": "error"
    },
    {
      "inputs": [],
      "name": "TransferToNonERC721ReceiverImplementer",
      "type": "error"
    },
    {
      "inputs": [],
      "name": "TransferToZeroAddress",
      "type": "error"
    },
    {
      "anonymous": false,
      "inputs": [
        {
          "indexed": true,
          "internalType": "address",
          "name": "owner",
          "type": "address"
        },
        {
          "indexed": true,
          "internalType": "address",
          "name": "approved",
          "type": "address"
        },
        {
          "indexed": true,
          "internalType": "uint256",
          "name": "tokenId",
          "type": "uint256"
        }
      ],
      "name": "Approval",
      "type": "event"
    },
    {
      "anonymous": false,
      "inputs": [
        {
          "indexed": true,
          "internalType": "address",
          "name": "owner",
          "type": "address"
        },
        {
          "indexed": true,
          "internalType": "address",
          "name": "operator",
          "type": "address"
        },
        {
          "indexed": false,
          "internalType": "bool",
          "name": "approved",
          "type": "bool"
        }
      ],
      "name": "ApprovalForAll",
      "type": "event"
    },
    {
      "anonymous": false,
      "inputs": [
        {
          "indexed": true,
          "internalType": "address",
          "name": "from",
          "type": "address"
        },
        {
          "indexed": true,
          "internalType": "address",
          "name": "to",
          "type": "address"
        },
        {
          "indexed": true,
          "internalType": "uint256",
          "name": "tokenId",
          "type": "uint256"
        }
      ],
      "name": "Transfer",
      "type": "event"
    },
    {
      "inputs": [
        {
          "internalType": "address",
          "name": "to",
          "type": "address"
        },
        {
          "internalType": "uint256",
          "name": "tokenId",
          "type": "uint256"
        }
      ],
      "name": "approve",
      "outputs": [],
      "stateMutability": "nonpayable",
      "type": "function"
    },
    {
      "inputs": [
        {
          "internalType": "address",
          "name": "owner",
          "type": "address"
        }
      ],
      "name": "balanceOf",
      "outputs": [
        {
          "internalType": "uint256",
          "name": "",
          "type": "uint256"
        }
      ],
      "stateMutability": "view",
      "type": "function"
    },
    {
      "inputs": [
        {
          "internalType": "uint256",
          "name": "tokenId",
          "type": "uint256"
        }
      ],
      "name": "getApproved",
      "outputs": [
        {
          "internalType": "address",
          "name": "",
          "type": "address"
        }
      ],
      "stateMutability": "view",
      "type": "function"
    },
    {
      "inputs": [
        {
          "internalType": "address",
          "name": "owner",
          "type": "address"
        },
        {
          "internalType": "address",
          "name": "operator",
          "type": "address"
        }
      ],
      "name": "isApprovedForAll",
      "outputs": [
        {
          "internalType": "bool",
          "name": "",
          "type": "bool"
        }
      ],
      "stateMutability": "view",
      "type": "function"
    },
    {
      "inputs": [
        {
          "internalType": "uint256",
          "name": "quantity",
          "type": "uint256"
        }
      ],
      "name": "mint",
      "outputs": [],
      "stateMutability": "payable",
      "type": "function"
    },
    {
      "inputs": [],
      "name": "name",
      "outputs": [
        {
          "internalType": "string",
          "name": "",
          "type": "string"
        }
      ],
      "stateMutability": "view",
      "type": "function"
    },
    {
      "inputs": [
        {
          "internalType": "uint256",
          "name": "tokenId",
          "type": "uint256"
        }
      ],
      "name": "ownerOf",
      "outputs": [
        {
          "internalType": "address",
          "name": "",
          "type": "address"
        }
      ],
      "stateMutability": "view",
      "type": "function"
    },
    {
      "inputs": [
        {
          "internalType": "address",
          "name": "from",
          "type": "address"
        },
        {
          "internalType": "address",
          "name": "to",
          "type": "address"
        },
        {
          "internalType": "uint256",
          "name": "tokenId",
          "type": "uint256"
        }
      ],
      "name": "safeTransferFrom",
      "outputs": [],
      "stateMutability": "nonpayable",
      "type": "function"
    },
    {
      "inputs": [
        {
          "internalType": "address",
          "name": "from",
          "type": "address"
        },
        {
          "internalType": "address",
          "name": "to",
          "type": "address"
        },
        {
          "internalType": "uint256",
          "name": "tokenId",
          "type": "uint256"
        },
        {
          "internalType": "bytes",
          "name": "_data",
          "type": "bytes"
        }
      ],
      "name": "safeTransferFrom",
      "outputs": [],
      "stateMutability": "nonpayable",
      "type": "function"
    },
    {
      "inputs": [
        {
          "internalType": "address",
          "name": "operator",
          "type": "address"
        },
        {
          "internalType": "bool",
          "name": "approved",
          "type": "bool"
        }
      ],
      "name": "setApprovalForAll",
      "outputs": [],
      "stateMutability": "nonpayable",
      "type": "function"
    },
    {
      "inputs": [
        {
          "internalType": "bytes4",
          "name": "interfaceId",
          "type": "bytes4"
        }
      ],
      "name": "supportsInterface",
      "outputs": [
        {
          "internalType": "bool",
          "name": "",
          "type": "bool"
        }
      ],
      "stateMutability": "view",
      "type": "function"
    },
    {
      "inputs": [],
      "name": "symbol",
      "outputs": [
        {
          "internalType": "string",
          "name": "",
          "type": "string"
        }
      ],
      "stateMutability": "view",
      "type": "function"
    },
    {
      "inputs": [
        {
          "internalType": "uint256",
          "name": "tokenId",
          "type": "uint256"
        }
      ],
      "name": "tokenURI",
      "outputs": [
        {
          "internalType": "string",
          "name": "",
          "type": "string"
        }
      ],
      "stateMutability": "view",
      "type": "function"
    },
    {
      "inputs": [],
      "name": "totalSupply",
      "outputs": [
        {
          "internalType": "uint256",
          "name": "",
          "type": "uint256"
        }
      ],
      "stateMutability": "view",
      "type": "function"
    },
    {
      "inputs": [
        {
          "internalType": "address",
          "name": "from",
          "type": "address"
        },
        {
          "internalType": "address",
          "name": "to",
          "type": "address"
        },
        {
          "internalType": "uint256",
          "name": "tokenId",
          "type": "uint256"
        }
      ],
      "name": "transferFrom",
      "outputs": [],
      "stateMutability": "nonpayable",
      "type": "function"
    }
  ],
  "bytecode": "0x60806040523480156200001157600080fd5b506040805180820182526006815265151a1953919560d21b60208083019182528351808501909452600384526213919560ea1b9084015281519192916200005b916002916200007f565b508051620000719060039060208401906200007f565b505060016000555062000162565b8280546200008d9062000125565b90600052602060002090601f016020900481019282620000b15760008555620000fc565b82601f10620000cc57805160ff1916838001178555620000fc565b82800160010185558215620000fc579182015b82811115620000fc578251825591602001919060010190620000df565b506200010a9291506200010e565b5090565b5b808211156200010a57600081556001016200010f565b600181811c908216806200013a57607f821691505b602082108114156200015c57634e487b7160e01b600052602260045260246000fd5b50919050565b61106a80620001726000396000f3fe6080604052600436106100e85760003560e01c80636352211e1161008a578063a22cb46511610059578063a22cb4651461026d578063b88d4fde1461028d578063c87b56dd146102ad578063e985e9c5146102db57600080fd5b80636352211e1461020557806370a082311461022557806395d89b4114610245578063a0712d681461025a57600080fd5b8063095ea7b3116100c6578063095ea7b31461017c57806318160ddd1461019e57806323b872dd146101c557806342842e0e146101e557600080fd5b806301ffc9a7146100ed57806306fdde0314610122578063081812fc14610144575b600080fd5b3480156100f957600080fd5b5061010d610108366004610ee2565b610324565b60405190151581526020015b60405180910390f35b34801561012e57600080fd5b50610137610376565b6040516101199190610fba565b34801561015057600080fd5b5061016461015f366004610f1a565b610408565b6040516001600160a01b039091168152602001610119565b34801561018857600080fd5b5061019c610197366004610eb9565b61044c565b005b3480156101aa57600080fd5b5060015460005403600019015b604051908152602001610119565b3480156101d157600080fd5b5061019c6101e0366004610d6f565b6104da565b3480156101f157600080fd5b5061019c610200366004610d6f565b6104e5565b34801561021157600080fd5b50610164610220366004610f1a565b610500565b34801561023157600080fd5b506101b7610240366004610d1c565b610512565b34801561025157600080fd5b50610137610561565b61019c610268366004610f1a565b610570565b34801561027957600080fd5b5061019c610288366004610e7f565b61057d565b34801561029957600080fd5b5061019c6102a8366004610daa565b610613565b3480156102b957600080fd5b506101376102c8366004610f1a565b5060408051602081019091526000815290565b3480156102e757600080fd5b5061010d6102f6366004610d3d565b6001600160a01b03918216600090815260076020908152604080832093909416825291909152205460ff1690565b60006001600160e01b031982166380ac58cd60e01b148061035557506001600160e01b03198216635b5e139f60e01b145b8061037057506301ffc9a760e01b6001600160e01b03198316145b92915050565b60606002805461038590610fcd565b80601f01602080910402602001604051908101604052809291908181526020018280546103b190610fcd565b80156103fe5780601f106103d3576101008083540402835291602001916103fe565b820191906000526020600020905b8154815290600101906020018083116103e157829003601f168201915b5050505050905090565b600061041382610664565b610430576040516333d1c03960e21b815260040160405180910390fd5b506000908152600660205260409020546001600160a01b031690565b600061045782610500565b9050806001600160a01b0316836001600160a01b0316141561048c5760405163250fdee360e21b815260040160405180910390fd5b336001600160a01b038216148015906104ac57506104aa81336102f6565b155b156104ca576040516367d9dca160e11b815260040160405180910390fd5b6104d583838361069d565b505050565b6104d58383836106f9565b6104d583838360405180602001604052806000815250610613565b600061050b826108e9565b5192915050565b60006001600160a01b03821661053b576040516323d3ad8160e21b815260040160405180910390fd5b506001600160a01b031660009081526005602052604090205467ffffffffffffffff1690565b60606003805461038590610fcd565b61057a3382610a12565b50565b6001600160a01b0382163314156105a75760405163b06307db60e01b815260040160405180910390fd5b3360008181526007602090815260408083206001600160a01b03871680855290835292819020805460ff191686151590811790915590519081529192917f17307eab39ab6107e8899845ad3d59bd9653f200f220920489ca2b5937696c31910160405180910390a35050565b61061e8484846106f9565b6001600160a01b0383163b15158015610640575061063e84848484610a30565b155b1561065e576040516368d2bf6b60e11b815260040160405180910390fd5b50505050565b600081600111158015610678575060005482105b8015610370575050600090815260046020526040902054600160e01b900460ff161590565b60008281526006602052604080822080546001600160a01b0319166001600160a01b0387811691821790925591518593918516917f8c5be1e5ebec7d5bd14f71427d1e84f3dd0314c0f7b2291e5b200ac8c7c3b92591a4505050565b6000610704826108e9565b9050836001600160a01b031681600001516001600160a01b03161461073b5760405162a1148160e81b815260040160405180910390fd5b6000336001600160a01b0386161480610759575061075985336102f6565b8061077457503361076984610408565b6001600160a01b0316145b90508061079457604051632ce44b5f60e11b815260040160405180910390fd5b6001600160a01b0384166107bb57604051633a954ecd60e21b815260040160405180910390fd5b6107c76000848761069d565b6001600160a01b038581166000908152600560209081526040808320805467ffffffffffffffff1980821667ffffffffffffffff92831660001901831617909255898616808652838620805493841693831660019081018416949094179055898652600490945282852080546001600160e01b031916909417600160a01b4290921691909102178355870180845292208054919390911661089d57600054821461089d578054602086015167ffffffffffffffff16600160a01b026001600160e01b03199091166001600160a01b038a16171781555b50505082846001600160a01b0316866001600160a01b03167fddf252ad1be2c89b69c2b068fc378daa952ba7f163c4a11628f55a4df523b3ef60405160405180910390a45b5050505050565b60408051606081018252600080825260208201819052918101919091528180600111158015610919575060005481105b156109f957600081815260046020908152604091829020825160608101845290546001600160a01b0381168252600160a01b810467ffffffffffffffff1692820192909252600160e01b90910460ff161515918101829052906109f75780516001600160a01b03161561098d579392505050565b5060001901600081815260046020908152604091829020825160608101845290546001600160a01b038116808352600160a01b820467ffffffffffffffff1693830193909352600160e01b900460ff16151592810192909252156109f2579392505050565b61098d565b505b604051636f96cda160e11b815260040160405180910390fd5b610a2c828260405180602001604052806000815250610b27565b5050565b604051630a85bd0160e11b81526000906001600160a01b0385169063150b7a0290610a65903390899088908890600401610f7d565b602060405180830381600087803b158015610a7f57600080fd5b505af1925050508015610aaf575060408051601f3d908101601f19168201909252610aac91810190610efe565b60015b610b0a573d808015610add576040519150601f19603f3d011682016040523d82523d6000602084013e610ae2565b606091505b508051610b02576040516368d2bf6b60e11b815260040160405180910390fd5b805181602001fd5b6001600160e01b031916630a85bd0160e11b149050949350505050565b6104d583838360016000546001600160a01b038516610b5857604051622e076360e81b815260040160405180910390fd5b83610b765760405163b562e8dd60e01b815260040160405180910390fd5b6001600160a01b038516600081815260056020908152604080832080546fffffffffffffffffffffffffffffffff19811667ffffffffffffffff8083168c0181169182176801000000000000000067ffffffffffffffff1990941690921783900481168c01811690920217909155858452600490925290912080546001600160e01b031916909217600160a01b429092169190910217905580808501838015610c2857506001600160a01b0387163b15155b15610cb1575b60405182906001600160a01b038916906000907fddf252ad1be2c89b69c2b068fc378daa952ba7f163c4a11628f55a4df523b3ef908290a4610c796000888480600101955088610a30565b610c96576040516368d2bf6b60e11b815260040160405180910390fd5b80821415610c2e578260005414610cac57600080fd5b610cf7565b5b6040516001830192906001600160a01b038916906000907fddf252ad1be2c89b69c2b068fc378daa952ba7f163c4a11628f55a4df523b3ef908290a480821415610cb2575b506000556108e2565b80356001600160a01b0381168114610d1757600080fd5b919050565b600060208284031215610d2d578081fd5b610d3682610d00565b9392505050565b60008060408385031215610d4f578081fd5b610d5883610d00565b9150610d6660208401610d00565b90509250929050565b600080600060608486031215610d83578081fd5b610d8c84610d00565b9250610d9a60208501610d00565b9150604084013590509250925092565b60008060008060808587031215610dbf578081fd5b610dc885610d00565b9350610dd660208601610d00565b925060408501359150606085013567ffffffffffffffff80821115610df9578283fd5b818701915087601f830112610e0c578283fd5b813581811115610e1e57610e1e611008565b604051601f8201601f19908116603f01168101908382118183101715610e4657610e46611008565b816040528281528a6020848701011115610e5e578586fd5b82602086016020830137918201602001949094529598949750929550505050565b60008060408385031215610e91578182fd5b610e9a83610d00565b915060208301358015158114610eae578182fd5b809150509250929050565b60008060408385031215610ecb578182fd5b610ed483610d00565b946020939093013593505050565b600060208284031215610ef3578081fd5b8135610d368161101e565b600060208284031215610f0f578081fd5b8151610d368161101e565b600060208284031215610f2b578081fd5b5035919050565b60008151808452815b81811015610f5757602081850181015186830182015201610f3b565b81811115610f685782602083870101525b50601f01601f19169290920160200192915050565b6001600160a01b0385811682528416602082015260408101839052608060608201819052600090610fb090830184610f32565b9695505050505050565b602081526000610d366020830184610f32565b600181811c90821680610fe157607f821691505b6020821081141561100257634e487b7160e01b600052602260045260246000fd5b50919050565b634e487b7160e01b600052604160045260246000fd5b6001600160e01b03198116811461057a57600080fdfea26469706673582212202bf29dc790df74cac245c31bf8cbed58c6006031fd843aa657cd1be0e62c319064736f6c63430008040033",
  "linkReferences": {},
  "deployedLinkReferences": {}
}