{
  "_format": "hh-sol-artifact-1",
  "contractName": "TheNFT",
  "sourceName": "contracts/TheNFT.sol",
  "abi": [
    {
      "inputs": [
        {
          "internalType": "string",
          "name": "baseURI_",
          "type": "string"
        }
      ],
      "stateMutability": "nonpayable",
      "type": "constructor"
    },
    {
      "inputs": [],
      "name": "ApprovalCallerNotOwnerNorApproved",
      "type": "error"
    },
    {
      "inputs": [],
      "name": "ApprovalQueryForNonexistentToken",
      "type": "error"
    },
    {
      "inputs": [],
      "name": "ApprovalToCurrentOwner",
      "type": "error"
    },
    {
      "inputs": [],
      "name": "ApproveToCaller",
      "type": "error"
    },
    {
      "inputs": [],
      "name": "BalanceQueryForZeroAddress",
      "type": "error"
    },
    {
      "inputs": [],
      "name": "MintToZeroAddress",
      "type": "error"
    },
    {
      "inputs": [],
      "name": "MintZeroQuantity",
      "type": "error"
    },
    {
      "inputs": [],
      "name": "OwnerQueryForNonexistentToken",
      "type": "error"
    },
    {
      "inputs": [],
      "name": "TransferCallerNotOwnerNorApproved",
      "type": "error"
    },
    {
      "inputs": [],
      "name": "TransferFromIncorrectOwner",
      "type": "error"
    },
    {
      "inputs": [],
      "name": "TransferToNonERC721ReceiverImplementer",
      "type": "error"
    },
    {
      "inputs": [],
      "name": "TransferToZeroAddress",
      "type": "error"
    },
    {
      "anonymous": false,
      "inputs": [
        {
          "indexed": true,
          "internalType": "address",
          "name": "owner",
          "type": "address"
        },
        {
          "indexed": true,
          "internalType": "address",
          "name": "approved",
          "type": "address"
        },
        {
          "indexed": true,
          "internalType": "uint256",
          "name": "tokenId",
          "type": "uint256"
        }
      ],
      "name": "Approval",
      "type": "event"
    },
    {
      "anonymous": false,
      "inputs": [
        {
          "indexed": true,
          "internalType": "address",
          "name": "owner",
          "type": "address"
        },
        {
          "indexed": true,
          "internalType": "address",
          "name": "operator",
          "type": "address"
        },
        {
          "indexed": false,
          "internalType": "bool",
          "name": "approved",
          "type": "bool"
        }
      ],
      "name": "ApprovalForAll",
      "type": "event"
    },
    {
      "anonymous": false,
      "inputs": [
        {
          "indexed": true,
          "internalType": "address",
          "name": "from",
          "type": "address"
        },
        {
          "indexed": true,
          "internalType": "address",
          "name": "to",
          "type": "address"
        },
        {
          "indexed": true,
          "internalType": "uint256",
          "name": "tokenId",
          "type": "uint256"
        }
      ],
      "name": "Transfer",
      "type": "event"
    },
    {
      "inputs": [
        {
          "internalType": "address",
          "name": "to",
          "type": "address"
        },
        {
          "internalType": "uint256",
          "name": "tokenId",
          "type": "uint256"
        }
      ],
      "name": "approve",
      "outputs": [],
      "stateMutability": "nonpayable",
      "type": "function"
    },
    {
      "inputs": [
        {
          "internalType": "address",
          "name": "owner",
          "type": "address"
        }
      ],
      "name": "balanceOf",
      "outputs": [
        {
          "internalType": "uint256",
          "name": "",
          "type": "uint256"
        }
      ],
      "stateMutability": "view",
      "type": "function"
    },
    {
      "inputs": [
        {
          "internalType": "uint256",
          "name": "tokenId",
          "type": "uint256"
        }
      ],
      "name": "getApproved",
      "outputs": [
        {
          "internalType": "address",
          "name": "",
          "type": "address"
        }
      ],
      "stateMutability": "view",
      "type": "function"
    },
    {
      "inputs": [
        {
          "internalType": "address",
          "name": "owner",
          "type": "address"
        },
        {
          "internalType": "address",
          "name": "operator",
          "type": "address"
        }
      ],
      "name": "isApprovedForAll",
      "outputs": [
        {
          "internalType": "bool",
          "name": "",
          "type": "bool"
        }
      ],
      "stateMutability": "view",
      "type": "function"
    },
    {
      "inputs": [
        {
          "internalType": "uint256",
          "name": "quantity",
          "type": "uint256"
        }
      ],
      "name": "mint",
      "outputs": [],
      "stateMutability": "payable",
      "type": "function"
    },
    {
      "inputs": [],
      "name": "name",
      "outputs": [
        {
          "internalType": "string",
          "name": "",
          "type": "string"
        }
      ],
      "stateMutability": "view",
      "type": "function"
    },
    {
      "inputs": [
        {
          "internalType": "uint256",
          "name": "tokenId",
          "type": "uint256"
        }
      ],
      "name": "ownerOf",
      "outputs": [
        {
          "internalType": "address",
          "name": "",
          "type": "address"
        }
      ],
      "stateMutability": "view",
      "type": "function"
    },
    {
      "inputs": [
        {
          "internalType": "address",
          "name": "from",
          "type": "address"
        },
        {
          "internalType": "address",
          "name": "to",
          "type": "address"
        },
        {
          "internalType": "uint256",
          "name": "tokenId",
          "type": "uint256"
        }
      ],
      "name": "safeTransferFrom",
      "outputs": [],
      "stateMutability": "nonpayable",
      "type": "function"
    },
    {
      "inputs": [
        {
          "internalType": "address",
          "name": "from",
          "type": "address"
        },
        {
          "internalType": "address",
          "name": "to",
          "type": "address"
        },
        {
          "internalType": "uint256",
          "name": "tokenId",
          "type": "uint256"
        },
        {
          "internalType": "bytes",
          "name": "_data",
          "type": "bytes"
        }
      ],
      "name": "safeTransferFrom",
      "outputs": [],
      "stateMutability": "nonpayable",
      "type": "function"
    },
    {
      "inputs": [
        {
          "internalType": "address",
          "name": "operator",
          "type": "address"
        },
        {
          "internalType": "bool",
          "name": "approved",
          "type": "bool"
        }
      ],
      "name": "setApprovalForAll",
      "outputs": [],
      "stateMutability": "nonpayable",
      "type": "function"
    },
    {
      "inputs": [
        {
          "internalType": "bytes4",
          "name": "interfaceId",
          "type": "bytes4"
        }
      ],
      "name": "supportsInterface",
      "outputs": [
        {
          "internalType": "bool",
          "name": "",
          "type": "bool"
        }
      ],
      "stateMutability": "view",
      "type": "function"
    },
    {
      "inputs": [],
      "name": "symbol",
      "outputs": [
        {
          "internalType": "string",
          "name": "",
          "type": "string"
        }
      ],
      "stateMutability": "view",
      "type": "function"
    },
    {
      "inputs": [
        {
          "internalType": "uint256",
          "name": "tokenId",
          "type": "uint256"
        }
      ],
      "name": "tokenURI",
      "outputs": [
        {
          "internalType": "string",
          "name": "",
          "type": "string"
        }
      ],
      "stateMutability": "view",
      "type": "function"
    },
    {
      "inputs": [],
      "name": "totalSupply",
      "outputs": [
        {
          "internalType": "uint256",
          "name": "",
          "type": "uint256"
        }
      ],
      "stateMutability": "view",
      "type": "function"
    },
    {
      "inputs": [
        {
          "internalType": "address",
          "name": "from",
          "type": "address"
        },
        {
          "internalType": "address",
          "name": "to",
          "type": "address"
        },
        {
          "internalType": "uint256",
          "name": "tokenId",
          "type": "uint256"
        }
      ],
      "name": "transferFrom",
      "outputs": [],
      "stateMutability": "nonpayable",
      "type": "function"
    }
  ],
  "bytecode": "0x60806040523480156200001157600080fd5b50604051620015d6380380620015d683398101604081905262000034916200015d565b6040805180820182526006815265151a1953919560d21b60208083019182528351808501909452600384526213919560ea1b9084015281519192916200007d91600291620000b7565b50805162000093906003906020840190620000b7565b506000805550508051620000af906008906020840190620000b7565b505062000286565b828054620000c59062000233565b90600052602060002090601f016020900481019282620000e9576000855562000134565b82601f106200010457805160ff191683800117855562000134565b8280016001018555821562000134579182015b828111156200013457825182559160200191906001019062000117565b506200014292915062000146565b5090565b5b8082111562000142576000815560010162000147565b6000602080838503121562000170578182fd5b82516001600160401b038082111562000187578384fd5b818501915085601f8301126200019b578384fd5b815181811115620001b057620001b062000270565b604051601f8201601f19908116603f01168101908382118183101715620001db57620001db62000270565b816040528281528886848701011115620001f3578687fd5b8693505b82841015620002165784840186015181850187015292850192620001f7565b828411156200022757868684830101525b98975050505050505050565b600181811c908216806200024857607f821691505b602082108114156200026a57634e487b7160e01b600052602260045260246000fd5b50919050565b634e487b7160e01b600052604160045260246000fd5b61134080620002966000396000f3fe6080604052600436106100e85760003560e01c80636352211e1161008a578063a22cb46511610059578063a22cb46514610269578063b88d4fde14610289578063c87b56dd146102a9578063e985e9c5146102c957600080fd5b80636352211e1461020157806370a082311461022157806395d89b4114610241578063a0712d681461025657600080fd5b8063095ea7b3116100c6578063095ea7b31461017c57806318160ddd1461019e57806323b872dd146101c157806342842e0e146101e157600080fd5b806301ffc9a7146100ed57806306fdde0314610122578063081812fc14610144575b600080fd5b3480156100f957600080fd5b5061010d610108366004611037565b610312565b60405190151581526020015b60405180910390f35b34801561012e57600080fd5b50610137610364565b60405161011991906111c6565b34801561015057600080fd5b5061016461015f36600461106f565b6103f6565b6040516001600160a01b039091168152602001610119565b34801561018857600080fd5b5061019c61019736600461100e565b61043a565b005b3480156101aa57600080fd5b50600154600054035b604051908152602001610119565b3480156101cd57600080fd5b5061019c6101dc366004610ec4565b6104c8565b3480156101ed57600080fd5b5061019c6101fc366004610ec4565b6104d3565b34801561020d57600080fd5b5061016461021c36600461106f565b6104ee565b34801561022d57600080fd5b506101b361023c366004610e78565b610500565b34801561024d57600080fd5b5061013761054f565b61019c61026436600461106f565b61055e565b34801561027557600080fd5b5061019c610284366004610fd4565b61056b565b34801561029557600080fd5b5061019c6102a4366004610eff565b610601565b3480156102b557600080fd5b506101376102c436600461106f565b610652565b3480156102d557600080fd5b5061010d6102e4366004610e92565b6001600160a01b03918216600090815260076020908152604080832093909416825291909152205460ff1690565b60006001600160e01b031982166380ac58cd60e01b148061034357506001600160e01b03198216635b5e139f60e01b145b8061035e57506301ffc9a760e01b6001600160e01b03198316145b92915050565b60606002805461037390611248565b80601f016020809104026020016040519081016040528092919081815260200182805461039f90611248565b80156103ec5780601f106103c1576101008083540402835291602001916103ec565b820191906000526020600020905b8154815290600101906020018083116103cf57829003601f168201915b5050505050905090565b6000610401826106c0565b61041e576040516333d1c03960e21b815260040160405180910390fd5b506000908152600660205260409020546001600160a01b031690565b6000610445826104ee565b9050806001600160a01b0316836001600160a01b0316141561047a5760405163250fdee360e21b815260040160405180910390fd5b336001600160a01b0382161480159061049a575061049881336102e4565b155b156104b8576040516367d9dca160e11b815260040160405180910390fd5b6104c38383836106eb565b505050565b6104c3838383610747565b6104c383838360405180602001604052806000815250610601565b60006104f982610937565b5192915050565b60006001600160a01b038216610529576040516323d3ad8160e21b815260040160405180910390fd5b506001600160a01b031660009081526005602052604090205467ffffffffffffffff1690565b60606003805461037390611248565b6105683382610a53565b50565b6001600160a01b0382163314156105955760405163b06307db60e01b815260040160405180910390fd5b3360008181526007602090815260408083206001600160a01b03871680855290835292819020805460ff191686151590811790915590519081529192917f17307eab39ab6107e8899845ad3d59bd9653f200f220920489ca2b5937696c31910160405180910390a35050565b61060c848484610747565b6001600160a01b0383163b1515801561062e575061062c84848484610a71565b155b1561064c576040516368d2bf6b60e11b815260040160405180910390fd5b50505050565b6060600061066160088461129e565b90506008805461067090611248565b1515905061068d57604051806020016040528060008152506106b9565b600861069882610b69565b6040516020016106a99291906110cf565b6040516020818303038152906040525b9392505050565b600080548210801561035e575050600090815260046020526040902054600160e01b900460ff161590565b60008281526006602052604080822080546001600160a01b0319166001600160a01b0387811691821790925591518593918516917f8c5be1e5ebec7d5bd14f71427d1e84f3dd0314c0f7b2291e5b200ac8c7c3b92591a4505050565b600061075282610937565b9050836001600160a01b031681600001516001600160a01b0316146107895760405162a1148160e81b815260040160405180910390fd5b6000336001600160a01b03861614806107a757506107a785336102e4565b806107c25750336107b7846103f6565b6001600160a01b0316145b9050806107e257604051632ce44b5f60e11b815260040160405180910390fd5b6001600160a01b03841661080957604051633a954ecd60e21b815260040160405180910390fd5b610815600084876106eb565b6001600160a01b038581166000908152600560209081526040808320805467ffffffffffffffff1980821667ffffffffffffffff92831660001901831617909255898616808652838620805493841693831660019081018416949094179055898652600490945282852080546001600160e01b031916909417600160a01b429092169190910217835587018084529220805491939091166108eb5760005482146108eb578054602086015167ffffffffffffffff16600160a01b026001600160e01b03199091166001600160a01b038a16171781555b50505082846001600160a01b0316866001600160a01b03167fddf252ad1be2c89b69c2b068fc378daa952ba7f163c4a11628f55a4df523b3ef60405160405180910390a45b5050505050565b604080516060810182526000808252602082018190529181019190915281600054811015610a3a57600081815260046020908152604091829020825160608101845290546001600160a01b0381168252600160a01b810467ffffffffffffffff1692820192909252600160e01b90910460ff16151591810182905290610a385780516001600160a01b0316156109ce579392505050565b5060001901600081815260046020908152604091829020825160608101845290546001600160a01b038116808352600160a01b820467ffffffffffffffff1693830193909352600160e01b900460ff1615159281019290925215610a33579392505050565b6109ce565b505b604051636f96cda160e11b815260040160405180910390fd5b610a6d828260405180602001604052806000815250610c83565b5050565b604051630a85bd0160e11b81526000906001600160a01b0385169063150b7a0290610aa6903390899088908890600401611189565b602060405180830381600087803b158015610ac057600080fd5b505af1925050508015610af0575060408051601f3d908101601f19168201909252610aed91810190611053565b60015b610b4b573d808015610b1e576040519150601f19603f3d011682016040523d82523d6000602084013e610b23565b606091505b508051610b43576040516368d2bf6b60e11b815260040160405180910390fd5b805181602001fd5b6001600160e01b031916630a85bd0160e11b1490505b949350505050565b606081610b8d5750506040805180820190915260018152600360fc1b602082015290565b8160005b8115610bb75780610ba181611283565b9150610bb09050600a836111f1565b9150610b91565b60008167ffffffffffffffff811115610be057634e487b7160e01b600052604160045260246000fd5b6040519080825280601f01601f191660200182016040528015610c0a576020820181803683370190505b5090505b8415610b6157610c1f600183611205565b9150610c2c600a8661129e565b610c379060306111d9565b60f81b818381518110610c5a57634e487b7160e01b600052603260045260246000fd5b60200101906001600160f81b031916908160001a905350610c7c600a866111f1565b9450610c0e565b6104c383838360016000546001600160a01b038516610cb457604051622e076360e81b815260040160405180910390fd5b83610cd25760405163b562e8dd60e01b815260040160405180910390fd5b6001600160a01b038516600081815260056020908152604080832080546fffffffffffffffffffffffffffffffff19811667ffffffffffffffff8083168c0181169182176801000000000000000067ffffffffffffffff1990941690921783900481168c01811690920217909155858452600490925290912080546001600160e01b031916909217600160a01b429092169190910217905580808501838015610d8457506001600160a01b0387163b15155b15610e0d575b60405182906001600160a01b038916906000907fddf252ad1be2c89b69c2b068fc378daa952ba7f163c4a11628f55a4df523b3ef908290a4610dd56000888480600101955088610a71565b610df2576040516368d2bf6b60e11b815260040160405180910390fd5b80821415610d8a578260005414610e0857600080fd5b610e53565b5b6040516001830192906001600160a01b038916906000907fddf252ad1be2c89b69c2b068fc378daa952ba7f163c4a11628f55a4df523b3ef908290a480821415610e0e575b50600055610930565b80356001600160a01b0381168114610e7357600080fd5b919050565b600060208284031215610e89578081fd5b6106b982610e5c565b60008060408385031215610ea4578081fd5b610ead83610e5c565b9150610ebb60208401610e5c565b90509250929050565b600080600060608486031215610ed8578081fd5b610ee184610e5c565b9250610eef60208501610e5c565b9150604084013590509250925092565b60008060008060808587031215610f14578081fd5b610f1d85610e5c565b9350610f2b60208601610e5c565b925060408501359150606085013567ffffffffffffffff80821115610f4e578283fd5b818701915087601f830112610f61578283fd5b813581811115610f7357610f736112de565b604051601f8201601f19908116603f01168101908382118183101715610f9b57610f9b6112de565b816040528281528a6020848701011115610fb3578586fd5b82602086016020830137918201602001949094529598949750929550505050565b60008060408385031215610fe6578182fd5b610fef83610e5c565b915060208301358015158114611003578182fd5b809150509250929050565b60008060408385031215611020578182fd5b61102983610e5c565b946020939093013593505050565b600060208284031215611048578081fd5b81356106b9816112f4565b600060208284031215611064578081fd5b81516106b9816112f4565b600060208284031215611080578081fd5b5035919050565b6000815180845261109f81602086016020860161121c565b601f01601f19169290920160200192915050565b600081516110c581856020860161121c565b9290920192915050565b600080845482600182811c9150808316806110eb57607f831692505b602080841082141561110b57634e487b7160e01b87526022600452602487fd5b81801561111f57600181146111305761115c565b60ff1986168952848901965061115c565b60008b815260209020885b868110156111545781548b82015290850190830161113b565b505084890196505b50505050505061118061116f82866110b3565b64173539b7b760d91b815260050190565b95945050505050565b6001600160a01b03858116825284166020820152604081018390526080606082018190526000906111bc90830184611087565b9695505050505050565b6020815260006106b96020830184611087565b600082198211156111ec576111ec6112b2565b500190565b600082611200576112006112c8565b500490565b600082821015611217576112176112b2565b500390565b60005b8381101561123757818101518382015260200161121f565b8381111561064c5750506000910152565b600181811c9082168061125c57607f821691505b6020821081141561127d57634e487b7160e01b600052602260045260246000fd5b50919050565b6000600019821415611297576112976112b2565b5060010190565b6000826112ad576112ad6112c8565b500690565b634e487b7160e01b600052601160045260246000fd5b634e487b7160e01b600052601260045260246000fd5b634e487b7160e01b600052604160045260246000fd5b6001600160e01b03198116811461056857600080fdfea2646970667358221220c6b9730825504936a9881ea297f77af4bbc329a38616a415ddce1aa9842b501d64736f6c63430008040033",
  "linkReferences": {},
  "deployedLinkReferences": {}
}